## Benchmark

- 4 session là tốt nhất ở máy local hiện tại
- cần benchmark thực tế trên server để cho performance tốt nhất

```
---- 1 session
2025/08/18 03:51:48.010457 8=FIX.4.4|9=168|35=D|34=2|49=test1|52=20250818-03:51:48.010
2025/08/18 03:53:19.793882 8=FIX.4.4|9=232|35=8|34=2000001|49=myoms|52=20250818-03:52:50.746

---- 4 multiple session
session 1
2025/08/18 03:56:58.011713 8=FIX.4.4|9=168|35=D|34=2|49=test1|52=20250818-03:56:58.011
2025/08/18 03:57:42.203840 8=FIX.4.4|9=231|35=8|34=500001|49=myoms|52=20250818-03:57:33.910

session 2
2025/08/18 03:56:58.025173 8=FIX.4.4|9=168|35=D|34=2|49=test2|52=20250818-03:56:58.025
2025/08/18 03:57:42.227617 8=FIX.4.4|9=231|35=8|34=500001|49=myoms|52=20250818-03:57:33.946

session 3
2025/08/18 03:56:58.028326 8=FIX.4.4|9=168|35=D|34=2|49=test3|52=20250818-03:56:58.028
2025/08/18 03:57:44.274380 8=FIX.4.4|9=231|35=8|34=500001|49=myoms|52=20250818-03:57:33.023

session 4
2025/08/18 03:56:58.008713 8=FIX.4.4|9=168|35=D|34=2|49=test4|52=20250818-03:56:58.008
2025/08/18 03:57:43.681068 8=FIX.4.4|9=231|35=8|34=500001|49=myoms|52=20250818-03:57:32.903

lan 2 :
2025/08/18 05:48:09.039565 8=FIX.4.4|9=169|35=D|34=2|49=test11|52=20250818-05:48:09.039
2025/08/18 05:48:57.810191 8=FIX.4.4|9=232|35=8|34=500001|49=myoms|52=20250818-05:48:49.430

---- 16 multiple
session 1
2025/08/18 04:08:41.032168 8=FIX.4.4|9=169|35=D|34=2|49=test11|52=20250818-04:08:41.032
2025/08/18 04:10:28.192824 8=FIX.4.4|9=232|35=8|34=125001|49=myoms|52=20250818-04:10:01.169

session 16
2025/08/18 04:08:41.045409 8=FIX.4.4|9=169|35=D|34=2|49=test44|52=20250818-04:08:41.045
2025/08/18 04:10:27.929085 8=FIX.4.4|9=232|35=8|34=125001|49=myoms|52=20250818-04:10:02.782

lan 2:
session 1:
2025/08/18 04:37:14.053984 8=FIX.4.4|9=169|35=D|34=2|49=test11|52=20250818-04:37:14.053
2025/08/18 04:38:46.588854 8=FIX.4.4|9=232|35=8|34=125001|49=myoms|52=20250818-04:38:24.346

---- 8 multiple
2025/08/18 04:40:58.024901 8=FIX.4.4|9=169|35=D|34=2|49=test11|52=20250818-04:40:58.024
2025/08/18 04:42:00.123434 8=FIX.4.4|9=232|35=8|34=250001|49=myoms|52=20250818-04:41:50.816

2025/08/18 05:45:20.046023 8=FIX.4.4|9=169|35=D|34=2|49=test11|52=20250818-05:45:20.044
2025/08/18 05:46:19.247893 8=FIX.4.4|9=232|35=8|34=250001|49=myoms|52=20250818-05:46:07.620
```
